:03000000020003F8
:0C000300787FE4F6D8FD75812002004AE9
:0403C500C101C100B1
:10032000D3EF9400EE9400400B7DFFDDFEEF1F70D5
:04033000EF1E80EC50
:0103340022A6
:0E037D00C2ACC2998F993099FDC299D2AC22C0
:020292008F0DCE
:100294001203BFAD07AC067FEF12037DAF0D12034F
:1002A4007DEEFF12037DAF0512037DE4F59075909A
:0102B400FF4A
:0102B5002226
:100233007F8012030A7F8A12030A759850758920FA
:10024300E4F587758850758DFD758BFDD299D28E37
:10025300D2AC7F801202927F8A1202927F801202B6
:0A026300927F8A120292C20080F21C
:0903AF00D280D281C281C28022F9
:0703B800C281D280D2812234
:0B03A400A2029281D280C280D281228E
:0C038B00D281D280A2819203C280A20322
:010397002243
:10035C00E4FEEF25E0FF9281D280C2800EBE08F24F
:01036C00226E
:1002F200E4FFD281FEEF25E0FFD280A281E4334207
:0703020007C2800EBE08EEE9
:0103090022D1
:0C039800EF4E6007EF1F70F81E80F5228A
:05034900C2047512382A
:0E034E00A2049282C283D2848512A0C28422AD
:0F036D00A2059282D28375A0FFD284AFA0C28472
:01037C00225E
:10008F007F107E271203981203497FA07E0F120361
:10009F00981203497F507E00120398120349C2053C
:1000AF0012036DEFC4131313540170F2C2047512CF
:1000BF000812034EC20512036DEFC413131354013C
:1000CF0070F2C20475120112034EC20512036DEFD6
:1000DF00C4131313540170F2C20475120612034EA7
:1000EF00C20512036DEFC4131313540170F2C2044F
:0600FF0075120C02034E15
:1002B600ED6006EF44C0FE8004EF4480FEC20512E6
:1002C600036DEFC4131313540170F2C2048E1202AD
:0202D600034ED5
:10026D00EFC39410501EEDC3940250181202B6C283
:10027D000512036DEFC4131313540170F2D2048BE6
:05028D001212034E22D5
:080105008F088B098A0A890B9F
:10010D00E4F50C1202B6AB09AA0AA90B850C82758F
:10011D0083001201B7603BC20512036DEFC41313C8
:10012D0013540170F2D204AB09AA0AA90B850C82F3
:10013D007583001201B7F51212034EE508250CFF69
:10014D00E433FEC3EF940FEE648094805004050CED
:02015D0080B46C
:01015F00227D
:040160008F0E8D0F62
:10016400E4F510F5111203AFAF0E12035C12038B0A
:100174004039AF0F12035C12038B402F1203AFE51B
:100184000E04FF12035C12038B40201202F275105E
:10019400008F11C2021203A4E511751100F51012AB
:1001A40002F2EF4211E4D2021203A41203B8AE1019
:0201B400AF1189
:0101B6002226
:0801F6008F0E8D0F8A108B1192
:1001FE00D2021203AFAF0E12035C12038B401FAF7D
:10020E000F12035C12038B4015E510FF12035C12F4
:10021E00038BAF11E51112035C12038B92021203D2
:04022E00B8A202B3BD
:0102320022A9
:10030A008F0D7B9F7A39E4FD1201F67B807A0C7D92
:06031A0005AF0D0201F623
:1002D8007D02120160EF30E0057E0F7FA022EF540F
:0902E800F8FFEEC313FEEF13FF53
:0102F10022EA
:100335007D03120160EEC313FEEF13FF7C007D0504
:030345001201E4BE
:010348002292
:0503BF007D0412016045
:0103C4002216
:10000F00020233E493A3F8E493A34003F68001F2D2
:10001F0008DFF48029E493A3F85407240CC8C333F2
:10002F00C4540F4420C8834004F456800146F6DFC1
:10003F00E4800B01020408102040809003C5E47E89
:10004F00019360BCA3FF543F30E509541FFEE493B6
:10005F00A360010ECF54C025E060A840B8E493A37D
:10006F00FAE493A3F8E493A3C8C582C8CAC583CAA8
:10007F00F0A3C8C582C8CAC583CADFE9DEE780BE60
:0103C9000033
:1001B700BB010CE58229F582E5833AF583E02250FD
:1001C70006E92582F8E622BBFE06E92582F8E22247
:0D01D700E58229F582E5833AF583E4932261
:1001E400EF8DF0A4A8F0CF8CF0A428CE8DF0A42E2F
:0201F400FE22E9
:00000001FF
